S00F000043414E5F424C452E7372656311
S1130000B82100202D010000290100002901000071
S113001000000000000000000000000000000000DC
S113002000000000000000000000000029010000A2
S11300300000000000000000290100002901000068
S11300402901000029010000290100002901000004
S113005029010000290100002901000029010000F4
S113006029010000290100002901000029010000E4
S1130070991200002901000029010000650D00000B
S113008029010000290100002901000029010000C4
S113009029010000290100002901000029010000B4
S11300A029010000290100002901000029010000A4
S11300B029010000290100002901000010B5064CA7
S11300C02378002B07D1054B002B02D0044800E015
S11300D000BF0123237010BD1400002000000000A5
S11300E0D8250000084B10B5002B03D00749084859
S11300F000E000BF07480368002B00D110BD064B89
S1130100002BFBD09847F9E70000000018000020FE
S1130110D8250000D82500000000000010B5014BD0
S1130120984710BDB5020000FEE7000010B5104A64
S1130130104B9A4209D00F4B0D4A03E01168196025
S1130140043304320C498B42F8D30C4B02E00022F6
S11301501A6004330A4A9342F9D30A4AFF210A4B2C
S11301608B439360094B9847094B9847FEE7C04679
S1130170D8250000000000201400002014000020F6
S1130180B801002000ED00E000000000F9230000A9
S113019061150000064B4021D82299500331103AD2
S11301A09950044AD36933390B43D3617047C0462D
S11301B0001C00400008004030B58223DB055622B5
S11301C0995C0125A94301242143C9B299543B20D8
S11301D0195C473A914302221143C9B21954572179
S11301E05A5CAA432243D2B25A541A5C48390A4090
S11301F020210A43D2B21A5430BD000010B582B097
S1130200064B9847002300931033054A05490648D6
S1130210064CA047064B984702B010BD950100005C
S11302203000002000100042A0000020CD06000095
S1130230B901000030B58223DB055922995C012500
S1130240A94301242143C9B299543C20195C4A3A78
S1130250114060221143C9B2195458215A5CAA436F
S11302602243D2B25A541A5C49398A4306210A43BA
S1130270D2B21A5430BD000010B5084A1169802367
S11302805B000B4313614021E823054AD150054923
S11302900548064B9847064B984710BD0008004098
S11302A0001C0040001C00427800002011030000E4
S11302B03502000010B5034B9847034B9847034B96
S11302C0984710BDF90D0000FD01000079020000FF
S11302D0EFF31083036072B6BFF35F8F7047BFF311
S11302E05F8F036883F31088704710B5C369002BD0
S11302F000D0984710BD10B5036A002B00D0984772
S113030010BD10B5436A002B00D0984710BD000003
S113031070B504000D00002815D0002911D001206B
S113032041220A490A4B984729002000094B984763
S1130330002805D1084B6360084BA360084BE360B9
S113034070BD0020ECE70020EAE7C04680240000EE
S11303503D08000041090000EB020000F702000024
S11303600303000010B50400431E9841C0B25C2290
S11303700349044B98472000034B984710BDC046DF
S1130380802400003D0800004D0A000070B5040000
S11303900D0000280DD0002909D001206E22064945
S11303A0064B984729002000054B984770BD002054
S11303B0F4E70020F2E7C046802400003D08000076
S11303C05D0A000070B504000D0000280DD000295E
S11303D009D0012077220649064B984729002000BE
S11303E0054B984770BD0020F4E70020F2E7C046B3
S11303F0802400003D0800001D0B000070B50600BD
S11304000D001400431E9841C0B281220C490D4BCB
S11304109847012D10D0002D04D0022D0ED00D20B0
S1130420404208E03462621E9441E2B22900300086
S1130430054B9847002070BDF461F4E77462F2E75D
S1130440802400003D080000790C000010B5040071
S1130450431E9841C0B29C220349044B9847200094
S1130460034B984710BDC046802400003D0800009F
S1130470C50C000010B50400431E9841C0B2A5226B
S11304800349044B98472000034B984710BDC046CE
S1130490802400003D080000D10C0000F8B50400E1
S11304A00D0016001F00431E9841C0B2B822054932
S11304B0054B98473B00320029002000034CA0471D
S11304C0F8BDC046802400003D080000D90C00009F
S11304D010B5044B1C68044B984701002000034BE3
S11304E0984710BD40000020D50D0000F10D00001C
S11304F070B504000D00160000280ED000290AD0A3
S1130500012034220649074B98472368320029000A
S11305102000984770BD0020F3E70020F1E7C046B3
S11305209C2400003D08000070B504000D00160076
S113053000280ED000290AD001203D220649074B8D
S113054098476368320029002000984770BD002056
S1130550F3E70020F1E7C0469C2400003D080000BA
S113056010B5083800230363436A002B00D0984772
S113057010BD10B5083800230363C36A002B00D0F4
S1130580984710BD10B504002C30044B9847236ADB
S1130590083C002B01D02000984710BDDD08000066
S11305A070B504000E00150000281DD000291DD0D0
S11305B0002A1DD100203C22FF321049104B9847DD
S11305C04423E25A0833E35A9A4213D1A6644C23D3
S11305D0E5520022083BE252433B236320000830EB
S11305E0084B9847280070BD0020E4E70020E2E7AC
S11305F00120E0E71C204042F5E7C046B02400009B
S11306003D0800000F12000070B504000200083A13
S11306104423D35A4C21525A93420DD00200016C08
S1130620083A5D1C44201552C95C2000044B9847CD
S11306302000044B984770BD034B9847FBE7C04626
S1130640071200000F12000017120000F0B585B069
S113065004000D001600002817D0002917D0002A26
S113066017D10020AC2252001249134B984703A81B
S1130670124B9847343420000194114B98470700DB
S113068003A8104B984700240BE00020EAE7002061
S1130690E8E70120E6E70134A4B2691801980A4B9F
S11306A098472100A74201D9B442F4D3200005B0F1
S11306B0F0BDC046B02400003D080000D102000097
S11306C01D090000DF02000091080000F8B50400D5
S11306D00D0016001F00002826D0002926D0002A6D
S11306E026D0002B26D100203A221549154B9847D5
S11306F0200034303A003100134B984700281BD1B6
S1130700200008302900114B984700280BD1104BCA
S11307106360104B2360104BA360104BE360104BDD
S11307202361104B6361F8BD0020DDE70020DBE7A7
S11307300020D9E70120D7E70D204042F3E7C04667
S1130740B02400003D0800004508000069110000C5
S11307504D060000A1050000090600008505000003
S1130760610500007305000010B50400431E9841A4
S1130770C0B261220449054B984720000830044B5D
S11307809847002010BDC046B02400003D0800007A
S1130790F511000070B504000D0000280BD00029ED
S11307A007D0012077220549054B98472C6000208B
S11307B070BD0020F6E70020F4E7C046B024000036
S11307C03D08000070B505000E001400431E98415A
S11307D0C0B283221649174B9847012E11D0002E20
S11307E004D0022E18D00D20404209E0AC62621EF3
S11307F09441E2B22800083001210F4B98470020B1
S113080070BD6C62621E9441E2B22800083002217D
S1130810094B98470020F3E7EC62621E9441E2B270
S1130820280008300321044B98470020E8E7C0461D
S1130830B02400003D08000021120000002800D16F
S113084000BE704770B504000E001500002812D0D9
S1130850002912D0002A12D1002028220A490B4B69
S113086098476B1E2B420CD163600023A360E360A6
S11308702660002070BD0020EFE70020EDE7012096
S1130880EBE70D204042F5E7D02400003D080000CE
S113089070B504000D00002816D0002912D00120E4
S11308A040220C490C4B9847A368E2689A420DD049
S11308B0626813402268D35C2B70A3680133A36081
S11308C0002070BD0020EBE70020E9E70A20404249
S11308D0F7E7C046D02400003D08000070B50400CE
S11308E00D00431E9841C0B251220A490A4B984751
S11308F06368E26813402268D554E368A2689A1AD0
S113090061688A4201D9591AA1600133E360002069
S113091070BDC046D02400003D08000010B504009E
S1130920431E9841C0B267220349044B9847E068CC
S1130930A368C01A10BDC046D02400003D080000C2
S1130940F0B501608B69012213438B6103689A69D6
S1130950D207FBD59A69022422439A61334B994208
S11309600FD00268936902218B43936102689369F3
S113097001398B43936103689B69DB07FBD4002037
S1130980F0BD2B4B1A0001C22A49816101688C69B0
S11309908C61016800248C600168274DCD61016879
S11309A0264DCD60264D2D042D0C802189020D434A
S11309B0A0260768BD51BC25066874510C3506682D
S11309C07451204D2D042D0C8026B6043543C026C9
S11309D00768BD511204120C0A43F02506687251CF
S11309E0703D2822066872511A0014321204120C47
S11309F00A4384260768BA511C331B041B0C0B439F
S1130A00882201688B5090230268D4500E4B8022B8
S1130A1012025A51BFF34F8FBFF36F8FC0214900A9
S1130A205A501A6003680122DA659AE7001C0042F2
S1130A304400002000000020010C0106330A0000DD
S1130A40F00000201001002000E100E0026893693A
S1130A5001218B439361002070470000F0B5CE461E
S1130A60474680B585B080460368A4229A5852064A
S1130A7045D0A4229C58240A653A1440A146234A2E
S1130A8093422ED00023002B3CD01A6852002CD461
S1130A9000224A731A68D200520D0A601A68920042
S1130AA02AD46A461A486E46B0C8B0C60068306098
S1130AB058680003000F125C0A7388680833190031
S1130AC0144B984743461968A8228B583F20834308
S1130AD04C461C438C50002005B00CBC90469946F3
S1130AE0F0BD23010C4A9B18CDE701224A731A6812
S1130AF0D200D2080A60D1E701220A71D1E70A20A4
S1130B004042E9E71C204042E6E7C046001C0042A0
S1130B10F42400005F240000F000002070B50500FC
S1130B200368C4229A58920200D593E0C4229858CC
S1130B30000CA53A10404A4A93423AD000200028BB
S1130B4000D18AE04B7B012B37D00B689B040360F8
S1130B500A7B082A39D844680F2313401B04414AEE
S1130B601440234343602B689B691B0A0124426899
S1130B7023405B053C4E3240134343602B689B6922
S1130B805B0A426823401B05384E324013434360DE
S1130B9008308B680A7B1900354B98472968C423B1
S1130BA0CA58120CA53B13409C40D023CC500020C3
S1130BB070BD00012F4BC018C1E70B6803600268C9
S1130BC08023DB0513430360C2E70C2A07D842687D
S1130BD0244B1A4090231B0313434360C3E7102A9A
S1130BE007D842681F4B1A40A0231B0313434360DA
S1130BF0B9E7142A07D842681A4B1A40B0231B03DA
S1130C0013434360AFE7182A07D84268154B1A40CC
S1130C10C0231B0313434360A5E7202A07D8426877
S1130C20104B1A40D0231B03134343609BE7302A25
S1130C3007D842680B4B1A40E0231B03134343605D
S1130C4091E7402A00D98EE74268F0231B0313433F
S1130C50436088E71C204042AAE71C204042A7E7E3
S1130C60001C0042FFFFF0FFFFFFDFFFFFFFEFFF6D
S1130C705F2400001001002010B5002909D00129CB
S1130C800ED002290BD10268536D0C490B405365F9
S1130C9005E001684B6D012083431A434A6510BD8A
S1130CA001684B6D064C234052021A434A650268A0
S1130CB001214942E023D150F1E7C046010200007E
S1130CC0FFFDFFFF03681B6C1B0A7F201840704761
S1130CD00368186CC0B2704730B584698800E56851
S1130CE0AC4660442469C9006118002A1DD1002B58
S1130CF019D05A6802601B6802685B055B091749D2
S1130D000A401343036003689B009B088022120679
S1130D101A4302600268124B1A4080231B051343D6
S1130D200360002030BD0360FBE7012AF9D1002BEA
S1130D3012D01A680A600A68D200D208802080059E
S1130D40104308605B684B604B689B009B088022E3
S1130D5012061A434A60E4E70B60E2E7FFFF00F87B
S1130D60FFFFFFC770B51A4B1D682B681C6DE307A6
S1130D7014D4A30516D4A30118D4E3011BD423026D
S1130D8007D5EB682A68526C920619D5022128000F
S1130D909847230716D42B681C6570BD2800AB68E0
S1130DA09847E6E728006B689847E4E703212800A2
S1130DB0EB689847E1E700212800EB689847DEE7F5
S1130DC00121E4E704212800EB689847E3E7C046E3
S1130DD04400002010B583001B1858010230032181
S1130DE0024B98476423584310BDC0464B0E000085
S1130DF00139FDD87047000010B5094B5A685A6094
S1130E00084B9847084B9847084B98470220084CD2
S1130E10A047084B9847FD20A047074B984710BDB3
S1130E2000400041C90E0000E50E0000BD0E0000A8
S1130E30810E0000210F00003D0E00009022D2051B
S1130E40137802218B431370704710B582B0EFF30F
S1130E501083019372B69023DB051A780124A24310
S1130E601A709860D9609023DB051B79DB07FAD4EC
S1130E709023DB051869019B83F3108802B010BD31
S1130E80C30707D5094A0A4B1A62094B5A68094B2A
S1130E901A42FAD1830707D5074A054B5A62044B15
S1130EA05A68044B1A42FAD17047C0460711010030
S1130EB0001C0040FD070000061101000122014B47
S1130EC01A71704700080040054AD3691B0A1B02C7
S1130ED0F82149010B40D361012313617047C046D7
S1130EE0001400400D4B02221A7509325A750B4B3F
S1130EF09B695B07FBD4094B9B695B07FBD4072207
S1130F00064B9A75054BDB68DB06FBD5034A137D5C
S1130F10802149420B43DBB2137570470010004037
S1130F20412180231A4AD1503F221A4B1A622C23A2
S1130F30184AD25C1E3B1A42F9D1164B20225A623F
S1130F400021083299542C23124AD25C1E3B1A42C7
S1130F50F9D102220F4B1A772C230E4AD35C9B073C
S1130F60FAD430230B4AD35CDB0703D43023D35C9D
S1130F709B07F6D5074A137F802149420B43DBB216
S1130F8013772C23034AD25C1E3B1A42F9D17047D3
S1130F90001C004000100040024B9C466044800A44
S1130FA0C0B2704700FCFFBD10B58469237EDB0727
S1130FB002D5A37DDB070FD4237E9B0702D5A37D37
S1130FC09B070ED4237E5B0715D5628B37231A4209
S1130FD00CD04833638310BD0123237503689847FD
S1130FE0F9E70223237583689847F4E74368218D62
S1130FF0C9B29847EFE7237EDB09ECD08023237640
S1131000C3689847638B9BB26383E4E7034B9842BE
S113101000D07047024B1960FBE7C0460010004245
S11310207000002010B5024B98470930C0B210BDC3
S1131030990F000010B50B4B9847020000200028C0
S113104006D0094A09490020094B9847002010BDE1
S113105083001B189900074BCB5C9A42F7D00130F0
S1131060C0B2ECE7990F00005E02000054250000B6
S11310703D0800000425000070B50400384B984773
S1131080E369DB071DD483001B189A00354B9B18BA
S11310905A681C231A40E3699B07FCD123689B0709
S11310A009D5236802218B432360E3699B07FCD1A4
S11310B0E3699B07FCD4012313432360E3699B0783
S11310C0FCD1E369DB07FCD483001B189A00254B91
S11310D09B185B682360E3699B07FCD183001B18A2
S11310E09A00204B9B189B686360E3695B07FCD103
S11310F083001B189A001B4B9B185B689A040BD443
S1131100C022D201134207D183001B189A00154B49
S11311109B189B89A38115E083001B189A00114931
S113112089188A89A389D204D20C5B0B5B0313430D
S1131130A3818B7B07221A40A3895203DB04DB0CB7
S11311401343A381074A83001D18A9000D005118F9
S1131150C97BA1735219127C3023E254002070BD64
S1131160351000000425000070B506000C00431E75
S11311709841C0B2C4221949194B98472000194B11
S11311809847051E01D0280070BDB46131002000CD
S1131190154B98472000154B984743B2002B0ADBA8
S11311A01F21014001228A408021114C6250BFF36B
S11311B04F8FBFF36F8F002B07DB1F2101400122EC
S11311C08A40C02149000A4C6250002BDBDB1F23FC
S11311D018401E3B8340064A1360D4E754250000A0
S11311E03D080000791000000D10000025100000DB
S11311F000E100E08269136802210B431360D369A4
S11312009B07FCD17047836989B21985704783694C
S113121001229A757047836902229A75704700000B
S113122070B504000D001600431E9841C0B2174A61
S11312301749184B9847002D0BD0022D09D0012DCA
S113124018D0032D0FD1A369002E1CD080229A75CB
S113125009E0A369002E07D101221A75A369002EA3
S113126005D102221A7570BD01229A75F6E7022291
S11312709A75F8E7A369002E02D104221A75F2E7E1
S113128004229A75EFE780221A75ECE71E0200002B
S1131290542500003D08000010B5024B1868024BAD
S11312A0984710BD70000020A90F0000704700008F
S11312B00122014B1A70704774000020704700002F
S11312C030B595B005004022002168461D4CA0476A
S11312D01022002110A8A0476B46129310A92800E1
S11312E0194B9847109B712B0BD0184A934213D07B
S11312F0174A93421BD0174AD3680133D36015B001
S113130030BD10AB12991A7B1348144B9847114AFD
S1131310136801331360F2E710AB12991A7B10487B
S11313200E4B98470B4A536801335360E7E710AB01
S113133012991A7B0B48094B9847064A9368013364
S11313409360DCE7712400008D0300002C0600008C
S11313505E04000070010020940100205F2400005E
S1131360B0010020A0010020F0B5DE4657464E46ED
S11313704546E0B583B0254B187900091B780193E5
S113138023490B78DB00FF221A404B785B091A4390
S11313909346204AD37859103F260E40B0465778DA
S11313A07F02F02149010F40927852001743DB0974
S11313B01F43194C194DA8472060194A924638001A
S11313C09047184A9146184A184BC847184E0022AD
S11313D00023B047174FB84760604046D047124AD1
S11313E0124BC84700220023B047B847A0605B46B1
S11313F0283B1800A847E0600198A847206103B083
S11314003CBC90469946A246AB46F0BDA0010020E4
S1131410B001002094010020800100206516000026
S113142025220000251D00009A9999999999B93FA0
S113143005170000A922000030B5050000240A4861
S11314400BE04008013B002B06D0C207F9D5400849
S1131450064A504080B2F5E701348C4203DA2B5D32
S113146058400823EFE730BDFFFF000001A0FFFF55
S113147030B59BB01E4B186808220AA91D4B98472B
S113148008AC1D4B220003CB03C201AD192200217D
S113149028001A4B984701232B7002336B701133C9
S11314A0AB7008220AA92000154B984700280DD0DC
S11314B01BB030BD4100CA1C124B5D5C01ACA5548D
S11314C0821C5200013B5B5CA35401300928F1DD0E
S11314D001AC172120000C4B9847E075000A2076D8
S11314E0034B186819222100084B9847E0E7C046CF
S11314F09C010020290500007025000071240000D3
S1131500412400008101002039140000F10400008E
S113151070B50B4C0B4A012120000B4DA8470B4A18
S113152000212000A8470A4A02212000A8470949AF
S11315302000094B98472000084B984770BDC046CF
S1131540A0000020AD120000C5070000B112000089
S1131550BD1200009C0100209507000069070000EF
S1131560F0B589B02F4B98472F4E304A00213000F8
S11315702F4B984706ACC0232370803B6370002533
S1131580A570E5702571A0336371A571D13BE3713A
S1131590049598231B01059304AB0022002130001D
S11315A0244FB8473000244B98476B461D7186235F
S11315B0DB000093029408236A46137355731F4B90
S11315C0984717E064201E4B9847174C6946200043
S11315D01C4B984720001C4B98471C4B186020005C
S11315E01B4B98471B4B18601B4B98471B4B9B7816
S11315F0012B09D0194B1B78012BE3D1174B002287
S11316001A7001329A70DDE7144AD3780133DBB2E1
S1131610D370032BEED914000025D570104B9847D6
S1131620A570E7E71D01000078000020C11200004A
S1131630FD0300009D040000650300001115000077
S1131640D1040000C503000075040000A8010020B7
S11316504D040000AC010020691300007400002058
S11316607114000070B5002830D0C317C4185C4052
S1131670C50F200000F0A2FE9E231B1A962B0DDC42
S11316809622D21A94402A006402640ADBB26402ED
S1131690DB05600AD2071843104370BD992B19DC8F
S11316A09922D21A002A29DD94402200144C1440B5
S11316B0510704D00F210A40042A00D004346201E7
S11316C013D4A401640ADBB22A00E0E70022002359
S11316D00024DCE705222100121AD140B922D21AD3
S11316E09440621E94410C43DAE7054B2A001C40E7
S11316F09F23A4011B1A640ADBB2C8E72200D5E7C2
S1131700FFFFFFFBF8B54546DE4657464E460C0341
S1131710E0B54E00C90F88460D00610A440F0C4322
S1131720C70019035800DB0F9B464B0A510F0B43AC
S1131730760D400D1900D200D84500D1AEE0351A1F
S1131740002D00DCF6E000280FD1134300D1DBE0CC
S11317506B1E002B00D037E1BA1A9742BF41641ABE
S11317607F42E41B0126170024E0C64B9E424DD065
S113177080231B041943382D00DD07E11F2D00DDF4
S113178038E12020431B9A460B005046834099467B
S113179013004846EB401843030050468240501E55
S11317A08241E9401A43BA1A611A9742A4411700C8
S11317B064420C1B230262D56402650A002D00D129
S11317C0DFE0280000F0FAFD0300083B1F2B00DDDA
S11317D0D2E020223C00D21A9D40D4409F402543B1
S11317E09E4200DDC4E09E1B731C1F2B00DDF1E054
S11317F0202238002900D21AD840914097402C006A
S11318000143781E8741DC4000260F437B0709D043
S11318100F233B40042B05D03B1DBB42BF417F42FD
S1131820E4191F0023022CD5964B01369E4200D1A9
S11318309AE04546944BFF081C4060077605640215
S11318400743240B760D00212403230B0C0D8F4A30
S113185024051C431440330523435B00ED075B0858
S11318602B43380019003CBC90469946A246AB462F
S1131870F8BD6446044300D111E2040067467B07C7
S1131880C6D145466007FF080743E4087D4B9E42E6
S113189030D024037605240B760DD4E7331A9A4608
S11318A0002B78DD002831D076488642AED08020E7
S11318B0000401435346382B00DCE9E00A43511E7F
S11318C08A410021D219BA42BF4109197C4217004A
S11318D00C192302D3D56B4B01369E4200D13AE159
S11318E00120694B1C407B0807401F43E007074366
S11318F064088BE723003B4300D1CBE18022120331
S113190014432403240B9EE72E007FE708001043B2
S113191000D1B4E0581E002800D0DEE0BA18BA4264
S11319209B4164185B42E418170001262302A6D5E4
S11319300226D5E7002D6ED1701C4005400D01280C
S113194000DCF9E0B81A844687428041E51A404237
S11319502D1A280200D489E0D71BBA4292411C1BDD
S11319605242A51AD84629E74546002400276AE7CB
S1131970454CF61A2C4049E73D002838854000279D
S11319802EE7380000F01AFD20301DE70A43511EEF
S11319908A41002107E7002B00D0F3E0701C4305C7
S11319A05B0D012B00DCADE0364B984200D1D1E059
S11319B0BA18BA42BF4164187F42E419E7075208D3
S11319C017436408060021E72E48854200D193E0BE
S11319D01D00D0E629001F3EF140202B00D18DE0F0
S11319E04022D31A9D402F437D1EAF4100240F4354
S11319F0002644E72B000800203BD8400300202D9C
S1131A0000D17DE04020451BA9400A43511E8A4174
S1131A1000211A43C7E6002E50D01A4EB04257D0C8
S1131A2080266B429946360434434B46382B00DDFE
S1131A30D6E01F2B00DD35E12026F51A2600AE4046
S1131A40B2463E00DE40AC46350056462E4365465F
S1131A50AF407D1EAF41DC403743D71BBA429241B1
S1131A600C1B5242A41A0600D846A3E664466746F5
S1131A702C4300D0A2E600250026002706E71E001E
S1131A80C4E6C046FF070000FFFF7FFFFFFF0F8093
S1131A901F2B63DC2020C31A080098409C46834611
S1131AA053461000D84003005846184363469A40F2
S1131AB0531E9A4153460243D94003E726003E434E
S1131AC006D0EB439946002BC7D0944EB042ACD11C
S1131AD00C0017000600D84698E6904B9A450BD0A8
S1131AE08246E7E6002800D09EE01800104300D1AB
S1131AF0E9E01C001700D846884E87E6002572E707
S1131B00002182E723003B43002E00D0ABE0002BF2
S1131B1000D1E7E00B00134300D177E6BA18BA42CC
S1131B20BF4164187F42E419230200D4F2E07C4BE5
S1131B3017001C40060069E620003843002ED1D16E
S1131B4000285BD11C00144300D1A8E01C0017003E
S1131B50D8465BE606000024002797E650460B00B3
S1131B602038C34099465346202B00D195E04023AA
S1131B7050461B1A99400A43511E8A414B46002184
S1131B801A439FE6002E30D126003E4367D0DB4344
S1131B909A46002B1CD0614EB04260D05346382B7D
S1131BA000DD96E01F2B00DD9FE02026F31A2600BF
S1131BB09E409C46B34653463E00DE4033005E469C
S1131BC01E4363469F407B1E9F415346DC40374380
S1131BD0BF189742924164185242A418060078E64E
S1131BE027437C1EA741002437E74C4EB04236D031
S1131BF080265B4236049A463443CFE718001043EC
S1131C0000D103E6B81A84466745AD41E01A6D4237
S1131C10401B050200D42CE6D71BBA4292411C1B80
S1131C205242A41AD846F1E51800104300D163E7E4
S1131C30F808670707438020E4080003044208D03B
S1131C40DD08054205D1D208590711430F002C00C5
S1131C50D8467B0FE4001C43FF00304ED6E50C0051
S1131C6017000600D2E5002B38D00B00134300D137
S1131C7042E7F808670707438020E40800030442AA
S1131C80E7D0CB080342E4D1D208490711430F003F
S1131C901C00DEE700270024D5E500216BE70025C2
S1131CA00027F3E54E462500203EF5404B462E0026
S1131CB0202B2DD04025ED1AAC4027437C1EA74194
S1131CC000243743C9E6802400252403134E00274B
S1131CD0DCE527437C1EA741002479E70C001700AC
S1131CE00E4E93E50C00170090E556462300203E67
S1131CF0F34099465346202B0ED0402356469B1B57
S1131D009C4027437C1EA7414B4600241F435FE7AA
S1131D100024D2E71700B2E50024F2E7FF07000031
S1131D20FFFF7FFFF0B557464546DE464E46E0B519
S1131D300C0398464E00230B87B0070092469B463F
S1131D40760DCD0F002E6BD06D4B9E4235D0802486
S1131D505B46420F2404DB0014431C43C300994632
S1131D60684BA3469C4600230027664402934346DF
S1131D701C035A00DB0F5046240B520D984600D129
S1131D8076E05F4B9A426DD08023410F1B040B43D6
S1131D905C49E4008C461C43C30000206244414675
S1131DA0B6186940721C0191944607430F2F00D95D
S1131DB0B0E0554ABF00D25997465B460343994663
S1131DC000D087E000239B46023308270293CEE726
S1131DD042460192022867D0032800D10EE201286E
S1131DE000D062E1002300240022994601990140B9
S1131DF0CDB2002112030B0D120B1B051343434AF2
S1131E00240513401C436400ED0764082C43484632
S1131E10210007B03CBC90469946A246AB46F0BDB3
S1131E20034399464FD05B46002B00D189E15846C5
S1131E3000F0C4FA03000B3B1C2B00DD7AE11D22E9
S1131E40D31A3A0001005C46DA4008398C4013008A
S1131E508F4023439B46B94600232D4E0027361A54
S1131E60029384E7534623432AD10024022096E7B1
S1131E705346234320D0002C00D157E1200000F02A
S1131E809DFA03000B3B1C2B00DD49E11D21CB1AFD
S1131E9051460200D9405346083A944093400C43BB
S1131EA01B4A121A00207AE70125019B144C1D409D
S1131EB00023002299469CE70024002201206EE7BB
S1131EC0534603206BE700239B4601330427002677
S1131ED002934CE7032381460C27029347E78022B1
S1131EE00023002512039946054C82E75C464B46C5
S1131EF002986FE75C464B46019502986AE7C04634
S1131F00FF07000001FCFFFF78250000FFFF0F80A2
S1131F100DFCFFFF4A464946170C1A0C1B041B0C08
S1131F2008041900000C41431500884619007D433C
S1131F307943039589462900150045434D4402958C
S1131F4045462D0CAA46029D5544A94506D98A4604
S1131F50802149028946CA4451460391290C0491BF
S1131F60414609042D04090C88462900250C240443
S1131F704144240C059121004143884621007943C2
S1131F808A466843414650448146080C48446F439E
S1131F90824503D98021490289464F44010C894670
S1131FA039004944029141460F0404993F0C884684
S1131FB00004C01980444146049159460F0C090499
S1131FC0090C884659438A4639005143894641469B
S1131FD04A435146090C8B467B43D2185A449342D8
S1131FE003D980235B029B46D94451460904090C5A
S1131FF08A46414661437C43130C12044B445244C9
S1132000A1468A463C0041466C434D4351464D44EB
S11320100F0C7D19A94503D98021490288464444FF
S1132020049F0399B84641448B468345804141420D
S11320308846514608042F04000C3F18584602995C
S113204010188946904292414F44BA4652429946EA
S11320509346C244D144CB448F42BF41C2458941D7
S113206099459B41934592417F4249422D0C5242EE
S11320700F435B4213437F19FF185B463C19DB0D8A
S1132080059A64021C43430213435D1EAB415A4646
S1132090C00D034352021343E20156D501205A08EE
S11320A003401343E207134364085A48604400287A
S11320B04DDD5A0709D00F221A40042A05D01A1DF3
S11320C09A429B415B42E4181300E20104D580204C
S11320D0514AC00014406044504A904200DDE3E697
S11320E00125DB0862071A436402019B9146220B17
S11320F04405640D1D407CE68022594612031142BA
S113210008D0144206D122431203120B45469946C5
S1132110434C6EE65B461A431203120B404C68E6CE
S113212003005446283B9C400023B9E600F046F9DE
S11321302030A6E60300283B9F400023BB46994677
S11321408AE600F03BF9203074E6B446ADE7012599
S11321502A1A382A06DD019B00241D400023002290
S1132160994646E61F2A21DC20252000AD1A1E00D0
S1132170AB40A840D6405D1EAB4130431843D44029
S1132180430709D00F230340042B05D00300181D77
S113219098429B415B42E418230221D50125019B0F
S11321A001241D4000230022994622E61F25210018
S11321B06D42281AC1400800202A1DD05F35AA1A92
S11321C0944023435C1EA341072503431D40002282
S11321D0002D09D00F2200241A401800042AD6D159
S11321E0030065076402220BDB082B430125994693
S11321F0019B00241D40FCE50024E2E78022012528
S11322001203224301991203120B0D409946044C08
S1132210EFE5C046FF030000FFFFFFFEFE070000DE
S1132220FF07000070B5002830D0C317C4185C4005
S1132230C50F200000F0C2F8174B184A1B1AD21A17
S11322401F2A18DD164AD21A9440002224035B0583
S1132250240B5B0D0021100024030A0D240B12052E
S11322602243104C1B05224013435B00ED075B081F
S11322702B43190070BD210091400A000B21081A5C
S1132280C4405B052403240B5B0DE3E70025002316
S113229000240022DEE7C0461E04000033040000D0
S11322A013040000FFFF0F80F0B54C00640D0B0316
S11322B0621C450F5B0A52052B43C90FC500520D22
S11322C0012A28DD3A4AA618FE2E1BDC002E3EDD2C
S11322D080010200501E82416D0F2A43DB0013432C
S11322E05A0704D00F221A40042A00D00433802253
S11322F0D2041A405AD00136FF2E03D09B015B0A48
S1132300F4B201E0FF2400235802E405400AC9079F
S113231020430843F0BD002C07D01D43F2D0802099
S1132320DB0080040343FF26DAE72B4303D00523B5
S1132330DB08FF2C03D05B025B0AE4B2E4E7002B6A
S113234032D08020C00303435B025B0ADCE7320027
S1132350173214DB80221E2712041343BF1B1F2FC6
S11323600FDC144A944664442A00A5402E00A3407E
S1132370751EAE41FA40334313430026B0E70024F0
S1132380D5E702225242961B1A00F240202F09D0B0
S1132390094884466444A3402B435D1EAB41002698
S11323A013439DE70023F7E70023ADE73400BFE7BD
S11323B080FCFFFF82FCFFFFA2FCFFFF1C21012326
S11323C01B04984201D3000C10391B0A984201D314
S11323D0000A08391B09984201D30009043902A2F2
S11323E0105C40187047C046040302020101010159
S11323F0000000000000000070B500260C4D0D4CDC
S1132400641BA410A64209D1002600F0D5F80A4D99
S11324100A4C641BA410A64205D170BDB300EB584E
S113242098470136EEE7B300EB5898470136F2E7D8
S1132430C4250000C4250000C4250000C8250000F0
S113244030B50024A24201D1002005E0035D651CE3
S11324500C5DA34201D0181B30BD2C00F2E7002311
S113246010B59A4200D110BDCC5CC4540133F8E7D6
S113247003008218934200D1704719700133F9E7C1
S11324802E2E2F68616C2F7372632F68616C5F63EB
S1132490616E5F6173796E632E6300002E2E2F6868
S11324A0616C2F7372632F68616C5F696F2E6300B8
S11324B02E2E2F68616C2F7372632F68616C5F75A9
S11324C0736172745F6173796E632E630000000040
S11324D02E2E2F68616C2F7574696C732F73726361
S11324E02F7574696C735F72696E67627566666571
S11324F0722E63000001020304050607080C101481
S113250018203040030000000400104000000300C5
S113251082E2000000000000000000000000000053
S113252000000000000000000000000000000000A7
S11325300000000000000000000000000000000097
S11325400000000000000000000000000000000087
S1132550000000002E2E2F68706C2F736572636F5D
S11325606D2F68706C5F736572636F6D2E6300000E
S113257001030000000AC5CD141F0000D41D000093
S1132580D41D0000D01D0000EC1E0000EC1E000055
S1132590DE1E0000D01D0000EC1E0000DE1E000048
S11325A0EC1E0000D01D0000F41E0000F41E00000C
S11325B0F41E0000F8200000F8B5C046F8BC08BCC2
S11325C09E467047E5000000F8B5C046F8BC08BC5C
S10B25D09E467047BD000000A7
S11325D8F0000020100100204800002058000020CE
S10725E8600000206B
S9030000FC
